{
  "contractName": "Calculator",
  "abi": [
    {
      "constant": false,
      "inputs": [
        {
          "name": "num",
          "type": "uint256"
        }
      ],
      "name": "addToNumber",
      "outputs": [],
      "payable": false,
      "stateMutability": "nonpayable",
      "type": "function"
    },
    {
      "constant": false,
      "inputs": [
        {
          "name": "num",
          "type": "uint256"
        }
      ],
      "name": "substractNumber",
      "outputs": [],
      "payable": false,
      "stateMutability": "nonpayable",
      "type": "function"
    },
    {
      "constant": false,
      "inputs": [],
      "name": "double",
      "outputs": [],
      "payable": false,
      "stateMutability": "nonpayable",
      "type": "function"
    },
    {
      "constant": false,
      "inputs": [
        {
          "name": "num",
          "type": "uint256"
        }
      ],
      "name": "multiplyWithNumber",
      "outputs": [],
      "payable": false,
      "stateMutability": "nonpayable",
      "type": "function"
    },
    {
      "constant": false,
      "inputs": [],
      "name": "getResult",
      "outputs": [
        {
          "name": "",
          "type": "uint256"
        }
      ],
      "payable": false,
      "stateMutability": "nonpayable",
      "type": "function"
    },
    {
      "constant": false,
      "inputs": [
        {
          "name": "num",
          "type": "uint256"
        }
      ],
      "name": "divideByNumber",
      "outputs": [],
      "payable": false,
      "stateMutability": "nonpayable",
      "type": "function"
    },
    {
      "constant": false,
      "inputs": [],
      "name": "half",
      "outputs": [],
      "payable": false,
      "stateMutability": "nonpayable",
      "type": "function"
    },
    {
      "inputs": [],
      "payable": false,
      "stateMutability": "nonpayable",
      "type": "constructor"
    }
  ],
  "bytecode": "0x6060604052600a600055341561001457600080fd5b61021a806100236000396000f300606060405260043610610083576000357c0100000000000000000000000000000000000000000000000000000000900463ffffffff16806306ccd230146100885780630b7e4e7f146100ab5780638fdb7189146100ce578063b4679b06146100e3578063de29278914610106578063f5cb911d1461012f578063f6a6462c14610152575b600080fd5b341561009357600080fd5b6100a96004808035906020019091905050610167565b005b34156100b657600080fd5b6100cc6004808035906020019091905050610179565b005b34156100d957600080fd5b6100e161018b565b005b34156100ee57600080fd5b610104600480803590602001909190505061019d565b005b341561011157600080fd5b6101196101af565b6040518082815260200191505060405180910390f35b341561013a57600080fd5b61015060048080359060200190919050506101b8565b005b341561015d57600080fd5b6101656101d3565b005b80600080828254019250508190555050565b80600080828254039250508190555050565b60026000808282540292505081905550565b80600080828254029250508190555050565b60008054905090565b806000808282548115156101c857fe5b049250508190555050565b60026000808282548115156101e457fe5b04925050819055505600a165627a7a72305820bf75e32cd53720fcdf491d0e6504eafe7c0ed512c2c25c1f5a5d304afcaca8080029",
  "source": "pragma solidity ^0.4.6;\n\ncontract Calculator {\n\n  // Result of the operation are always stored in this variable\n  uint result=10;\n\n  function Calculator() {\n    // constructor\n\n  }\n\n  // returns the result\n  function getResult() returns (uint){\n    return result;\n  }\n\n  // result = result + num\n  function addToNumber(uint num)  {\n    result += num;\n  }\n\n  // result = result - num\n  function substractNumber(uint num)  {\n    result -= num;\n  }\n\n  // result = result * num\n  function multiplyWithNumber(uint num) {\n    result *= num;\n  }\n\n  // result = result / num\n  function divideByNumber(uint num) {\n    result /= num;\n  }\n\n  function double(){\n    result *= 2;\n  }\n\n  function half(){\n    result /= 2;\n  }\n}\n",
  "sourcePath": "/Users/anujgupta/blockchain/truffle-project/contracts/Calculator.sol",
  "compiler": {
    "name": "solc",
    "version": "0.4.18+commit.9cf6e910.Emscripten.clang"
  },
  "schemaVersion": "1.0.1",
  "updatedAt": "2017-12-17T08:22:57.311Z"
}