{
  "contractName": "Calculator",
  "abi": [
    {
      "inputs": [
        {
          "name": "num",
          "type": "uint256"
        }
      ],
      "payable": false,
      "stateMutability": "nonpayable",
      "type": "function",
      "constant": false,
      "name": "addToNumber",
      "outputs": []
    },
    {
      "constant": false,
      "inputs": [
        {
          "name": "num",
          "type": "uint256"
        }
      ],
      "name": "substractNumber",
      "outputs": [],
      "payable": false,
      "stateMutability": "nonpayable",
      "type": "function"
    },
    {
      "constant": false,
      "inputs": [
        {
          "name": "num",
          "type": "uint256"
        }
      ],
      "name": "multiplyWithNumber",
      "outputs": [],
      "payable": false,
      "stateMutability": "nonpayable",
      "type": "function"
    },
    {
      "constant": false,
      "inputs": [],
      "name": "getResult",
      "outputs": [
        {
          "name": "",
          "type": "uint256"
        }
      ],
      "payable": false,
      "stateMutability": "nonpayable",
      "type": "function"
    },
    {
      "constant": false,
      "inputs": [
        {
          "name": "num",
          "type": "uint256"
        }
      ],
      "name": "divideByNumber",
      "outputs": [],
      "payable": false,
      "stateMutability": "nonpayable",
      "type": "function"
    },
    {
      "inputs": [],
      "payable": false,
      "stateMutability": "nonpayable",
      "type": "constructor"
    }
  ],
  "bytecode": "0x6060604052600a600055341561001457600080fd5b6101ad806100236000396000f30060606040526004361061006d576000357c0100000000000000000000000000000000000000000000000000000000900463ffffffff16806306ccd230146100725780630b7e4e7f14610095578063b4679b06146100b8578063de292789146100db578063f5cb911d14610104575b600080fd5b341561007d57600080fd5b6100936004808035906020019091905050610127565b005b34156100a057600080fd5b6100b66004808035906020019091905050610139565b005b34156100c357600080fd5b6100d9600480803590602001909190505061014b565b005b34156100e657600080fd5b6100ee61015d565b6040518082815260200191505060405180910390f35b341561010f57600080fd5b6101256004808035906020019091905050610166565b005b80600080828254019250508190555050565b80600080828254039250508190555050565b80600080828254029250508190555050565b60008054905090565b8060008082825481151561017657fe5b0492505081905550505600a165627a7a723058209df0b836e9fc6a21f06117e54532b0dfa0fa2152e81f9768317800ed69528f2b0029",
  "source": "pragma solidity ^0.4.6;\n\ncontract Calculator {\n\n  // Result of the operation are always stored in this variable\n  uint result=10;\n\n  function Calculator() {\n    // constructor\n\n  }\n\n  // returns the result\n  function getResult() returns (uint){\n    return result;\n  }\n\n  // result = result + num\n  function addToNumber(uint num)  {\n    result += num;\n  }\n\n  // result = result - num\n  function substractNumber(uint num)  {\n    result -= num;\n  }\n\n  // result = result * num\n  function multiplyWithNumber(uint num) {\n    result *= num;\n  }\n\n  // result = result / num\n  function divideByNumber(uint num) {\n    result /= num;\n  }\n\n}\n",
  "sourcePath": "/Users/anujgupta/blockchain/truffle-project/contracts/Calculator.sol",
  "compiler": {
    "name": "solc",
    "version": "0.4.18+commit.9cf6e910.Emscripten.clang"
  },
  "schemaVersion": "1.0.1",
  "updatedAt": "2017-12-17T07:50:30.282Z"
}